:020000040000FA
:02000000E428F2
:080008009D289E001E301E021F
:100010000318BE341E0882077E347E347E347E345C
:100020007E346E346E346E346E346E34EE34EE34B0
:10003000EE34EE34EE34CE34CE34CE34CE34CE3450
:10004000DE34DE34DE34DE34DE349E349E349E34E0
:100050009E349E34BE349E001E301E020318FC34B3
:100060001E0882077E347E347E347E347E347634BD
:100070007634763476347634F634F634F634F63430
:10008000F634F234F234F234F234F234FA34FA342C
:10009000FA34FA34FA34F834F834F834F834F834FA
:1000A000FC340F3982078034BC34123418342C34B9
:1000B000483440349C3400340834FF309A009A0BA2
:1000C0005F280800383093009210921C6528930B2B
:1000D0006428080003100830990096019701950DD7
:1000E000970D960D990B75280800173084007C2019
:1000F000163084007C206F28033000079800981980
:100100008000303000079800981B800008008900AC
:100110008316081483120808080088008B138316BE
:10012000081555308900AA308900881408118818EC
:100130009728081283128B1708009100030E900075
:10014000831214081218AC28121400008511023C06
:10015000000081070B11B32800008515023E8107BE
:1001600012100B11DF289214051DC028851CC6280B
:10017000051CCC28051600000C0886000511DF2898
:10018000051500000D0886008510DF288514000085
:100190000E0886000510DF28051400008316FF30C6
:1001A0008600831214309A009A0BD42806089D000A
:1001B00083160130860083120F0886000512100E88
:1001C0008300910E110E0900FE308C008D008E0010
:1001D0008F009D00831601308600003081000030C2
:1001E0008500831217308500FF3086008B168B1731
:1001F0007E308D008C000F309F00FF309C005D2012
:100200009C0BFF289F0BFD2800308720A1000130A8
:100210008720A20002308720A30003308720A4009B
:10022000A0309C005D209C0B122994019417622041
:10023000061C941314176220061C141394166220D3
:10024000061C941214166220061C141294156220C7
:10025000061C941114156220061C141194146220BB
:10026000061C941014146220061C14101408FF3C81
:100270009B009D1FA3299D1DC5291D1DBF299D1CD8
:10028000B9291B08E63C0318572980308D00E2305D
:100290008C00FE308E00BE308F00102980308D0023
:1002A000E2308C00FC308F007E308E00102913303D
:1002B0001B02031C4E291B08B5002108B800B90118
:1002C000B601D322B61F6D291B08B8002108B5005E
:1002D000B901B601D32225146E292510B9013508BC
:1002E000B600B7012208B8009922B701B601350857
:1002F000B6003408B500B9012408B800ED2135086E
:1003000095006A20FE3025187E308E001608031DE9
:100310009E2917080F3951208C00170E0F39031929
:100320009B2951208D0035082518992905208F001B
:1003300010292B209729FE308D00932980308D00C5
:10034000E2308C009329003089001B08A1008D2029
:10035000C2308E0004308D00E2308C007E308F0081
:1003600028309B07B929FF309C005D209C0BB529E4
:100370001029FC308F00013089001E30CA29F83066
:100380008F00013089001930CA29F2308F00013006
:1003900089001130A2008D20023089001B08A300C3
:1003A0008D20C2308E0004308D00E2308C00230896
:1003B000B5002108B800B901B601D322B61FE7295C
:1003C0002308B8002108B500B901B601D3220330D3
:1003D00089003508A4008D20B329BB01BA01A6010C
:1003E000370DBA0D3808BA023908031C390FBB02A1
:1003F0000301031C0130A602B70D0730BC00370D06
:10040000BA0DBB0DA60D3808371C102ABA023908E0
:10041000031C390FBB020301031C0130A602192A79
:10042000BA0739080318390FBB0703010318013055
:10043000A607B70DBC0BFF29360DBA0DBB0DA60DD7
:100440003808371C2D2ABA023908031C390FBB02A1
:100450000301031C0130A602362ABA073908031823
:10046000390FBB07030103180130A607B60D07308B
:10047000BC00360DBA0DBB0DA60D3808361C4A2A35
:10048000BA023908031C390FBB020301031C0130F7
:10049000A602532ABA0739080318390FBB0703010C
:1004A00003180130A607B60DBC0B392A350DBA0D5D
:1004B000BB0DA60D3808361C672ABA023908031C82
:1004C000390FBB020301031C0130A602702ABA07D0
:1004D00039080318390FBB07030103180130A607B9
:1004E000B50D0730BC00350DBA0DBB0DA60D380893
:1004F000351C842ABA023908031C390FBB020301D8
:10050000031C0130A6028D2ABA0739080318390FD7
:10051000BB07030103180130A607B50DBC0B732AF6
:100520003518982A3808BA0739080318390FBB0755
:100530000800B501B4013708A7003608A800083044
:10054000BC00B80C0318B12ABC0BA12ABC00B90C22
:100550000318AF2ABC0BA72AB701B6010034031059
:10056000CC2A0310BC2AB80C031CBC2A2808B607E6
:1005700027080318270FB707B70CB60CB50CBC0B30
:10058000B32A0830BC00B90C031CCC2A2808B607D3
:1005900027080318270FB707B70CB60CB50CB40C17
:1005A000BC0BC32A0800DB223808B5070318B60ABB
:1005B0003908B6070800B809B80A0319B903B90918
:0205C000080031
:02400E00F13F80
:0842000080001E00A800280048
:00000001FF
